:100000001AC034C033C08CC731C030C02FC02EC01E
:100010002DC02CC02BC057C629C078C486C026C0AE
:1000200025C024C023C00CC2AEC1B3C1BDC1CFC165
:10003000D8C1E3C1EAC111241FBECFE5D4E0DEBFC1
:10004000CDBF10E0A0E6B0E0E0E8F2E102C005902C
:100050000D92A636B107D9F711E0A6E6B0E001C0CF
:100060001D92A131B107E1F7A5D808C9C9CF1092F7
:10007000670010926600109269001092680010925A
:100080006B0010926A0010926D0010926C0010923A
:100090006F0010926E00109271001092700010921A
:1000A000730010927200109275001092740083E633
:1000B00080936000A098A89817B880B78F7E80BF03
:1000C0008DE886B981E890E060D7089520916000BE
:1000D000273011F02F5F01C020E0E22FF0E0EE0F9B
:1000E000FF1FEA59FF4F80819181009789F3209388
:1000F000600087B1807F87B987B1822B87B9369A34
:100100000895E4DF0895683078F4E62FF0E0EE0F0C
:10011000FF1FEA59FF4F91838083809160008336EF
:1001200019F410926000D2DF08951F920F920FB65B
:100130000F9211242F933F934F935F936F937F936D
:100140008F939F93AF93BF93EF93FF93E0916000E2
:10015000F0E0EE0FFF1FEA59FF4F0190F081E02D14
:100160000995FF91EF91BF91AF919F918F917F91F1
:100170006F915F914F913F912F910F900FBE0F9014
:100180001F90189583B390E08072907035E095953C
:1001900087953A95E1F780937600813051F0809110
:1001A000800090918100019690938100809380005F
:1001B00009C080917A0090917B00019690937B001A
:1001C00080937A0080B390E08270907095958795C7
:1001D00080937600813051F4809182009091830069
:1001E0000196909383008093820009C080917C00E7
:1001F00090917D00019690937D0080937C0080B368
:10020000817080937600813051F0809184009091CC
:1002100085000196909385008093840009C08091A9
:100220007E0090917F00019690937F0080937E00E6
:1002300080918600909187008436910531F0019677
:100240009093870080938600089521E02093880092
:1002500080918000909181008A35910518F010926C
:1002600077000DC080917A0090917B008A359105CE
:1002700018F02093770003C082E08093770080918C
:100280008200909183008A35910518F010927800D1
:100290000CC080917C0090917D008A35910510F012
:1002A00081E001C082E08093780080918400909189
:1002B00085008A35910518F0109279000CC0809164
:1002C0007E0090917F008A35910510F081E001C099
:1002D00082E080937900109287001092860010923D
:1002E00081001092800010927B0010927A00109290
:1002F00083001092820010927D0010927C00109278
:1003000085001092840010927F0010927E00089564
:10031000109288001092870010928600109281003F
:10032000109280001092830010928200109285003B
:100330001092840010927B0010927A0010927D003F
:1003400010927C0010927F0010927E0081E08093DA
:100350007700809378008093790082EC90E015D646
:10036000A598AD9881B38C7F81BB82B38C7F82BB13
:100370000895E091A600F0E0E830F10508F04DC0E6
:10038000ED5EFF4F0994979888B3887F88BB82E021
:1003900031C09798C09888B3866088BB1092A5003A
:1003A0001092A40083E026C08091A4009091A50043
:1003B000803F910531F4979888B3887F88BB8AE0A5
:1003C00019C001969093A5008093A4000895809190
:1003D0008900982F915090938900882389F586E0B1
:1003E00009C080918900982F9150909389008823AB
:1003F00039F587E08093A60008951092A60097989B
:10040000C29888B3836088BB08951092A60088B311
:100410008C7F88BB979AC29A08958091A40090918E
:10042000A5008A3F910539F41092A6001092A3000E
:100430001092A200089501969093A5008093A400C5
:10044000089584B190E045B1342F20E0822B932BA6
:1004500062E070E0ECD670939D0060939C0008957C
:100460008F9A87B3876087BB979888B3887F88BB4C
:10047000979888B3887F88BB1092A5001092A4003B
:100480001092A6001092A3001092A20089EB91E0B6
:100490007CD581E292E060E036DE8BE493E066E0BA
:1004A00032DE80E393E067E02EDE8CE390E0909311
:1004B00099008093980090939B0080939A0084E623
:1004C00090E090939100809390009093930080939C
:1004D0009200109295001092940010929700109242
:1004E000960010928D0010928C0010928F00109246
:1004F0008E0010928B0010929D0010929C00109222
:100500009F0010929E001092A1001092A0000895EA
:100510008130F9F0813020F0823009F05BC036C0C4
:100520008091A2009091A30001978230910508F07C
:1005300051C08FEF9FEF909307018093060181E0F8
:100540008093A6008AEF90E09093A3008093A2008E
:100550003FC08091A2009091A30082309105D0F518
:1005600081309105C9F18EE190E09093070180936D
:10057000060184E08093A60081E090E09093A300C0
:100580008093A2009798C298C09A1FC02091A200A1
:100590003091A3002115310529F081E02230310589
:1005A000C9F41BC08EE190E090930701809306018F
:1005B00085E08093A60082E090E09093A300809372
:1005C000A20088B38C7F88BB979A83E080938900D0
:1005D00081E0089580E0089581E0089590E0880F1B
:1005E000991FFC01E856FF4F20813181FC01EC5638
:1005F000FF4F2617370798F42081318142E02C3BCA
:10060000340741F41182108221E020938B00209363
:100610008A0007C02F5F3F4F3183208302C01182C1
:100620001082FC01E057FF4F20813181FC01E4572B
:10063000FF4F2617370788F480819181883C910508
:1006400041F41182108281E080938B0080938A00B4
:1006500008950196918380830895118210820895F0
:1006600024B130E045B1942F80E0282B392BC9010B
:10067000880F991F53E0220F331F5A95E1F7820F1D
:10068000931F6BE170E0D3D56093A0007093A1003D
:1006900081E0A4DF089524B130E045B1942F80E0DB
:1006A000282B392BC901880F991F73E0220F331FA4
:1006B0007A95E1F7820F931F6BE170E0B8D56093F4
:1006C0009E0070939F0080E089DF089590939D00C5
:1006D00080939C00089510928B0008958091AB0048
:1006E0009091AC002091A7003091A8008217930749
:1006F00010F4969A04C02817390708F496982091A8
:10070000A9003091AA008217930710F4959A04C0AB
:100710002817390708F495988091AB009091AC00A8
:100720009C012F5F3F4F3093AC002093AB008A3F7A
:10073000910521F41092AC001092AB00089581B3A2
:10074000806681BB82B38F7982BB8EE693E01DD435
:100750001092A8001092A7001092AA001092A9006F
:100760001092AC001092AB0008950895A59AAD9830
:100770000895AD9A0895AD98089587B3877C87BB97
:1007800088B3886388BB81B3837E81BB82B38C616D
:1007900082BB8AE090E0E9D420B380B3A0B3E6B393
:1007A00066B346B3B0E0A095B095A071B070B595B2
:1007B000A79590E080959095887090709595879515
:1007C0008A2BF0E0E095F095E870F07073E0F59515
:1007D000E7957A95E1F78E2B70E0609570956072E1
:1007E000707075956795862B50E0409550954071D7
:1007F0005070440F551F842B30E0209530952470A5
:10080000307035952795822B08951092CC00109268
:10081000CB00EDECF0E080E090E0119201968431A5
:100820009105D9F70895FC0120E030E080E004C094
:100830009191890F2F5F3F4F26173707C9F708950A
:100840000F931F93CF93DF93CDB7DEB70A85CE0109
:100850000B962F812093CD0028852093CE002985EB
:100860002093CF000093D000FC01A1EDB0E084E024
:1008700090E010E00C5F1F4F04C020812D93019683
:10088000329680179107C8F38DEC90E0B801CBDF6A
:10089000F801E353FF4F8083DF91CF911F910F91B8
:1008A00008951092B6001092B500E7EBF0E080E0FA
:1008B00090E01192019684319105D9F71092B4001D
:1008C0001092B3001092B2005F9A8AB180698AB91F
:1008D00008958091CB009091CC0001969093CC002C
:1008E0008093CB002091D00030E02B5F3F4F8217E8
:1008F000930730F483539F4FFC0180818CB9089596
:100900003ADF8AB1877B8AB9CCDF08951F920F92B4
:100910000FB60F9211242F933F934F935F936F93D2
:100920007F938F939F93AF93BF93EF93FF93D1DF09
:10093000FF91EF91BF91AF919F918F917F916F91B7
:100940005F914F913F912F910F900FBE0F901F908D
:1009500018951092AE001092B0001092AF0006DF12
:100960000CDF8093B10010BC83E089B986E880BDBC
:100970004CDF97DF00DF8DEE94E007D308958AB156
:100980008F768AB90895FBDFF4DE5E9A8AB18864B7
:100990008AB98AE090E0E9D31092CC001092CB00A3
:1009A0008091CD008CB908951092B3001092B200DE
:1009B00008958091B2009091B30001969093B30096
:1009C0008093B200853091053CF081E08093B400C3
:1009D0001092B3001092B2000895EBDF089581E009
:1009E0009091BA00903108F080E008959091B7009E
:1009F0008091B1009817B9F48091B900893038F02E
:100A00008C3018F08E59823010F481E001C080E003
:100A10009091BA00903108F080E09091B800925225
:100A2000983018F4089581E0089580E00895EF92D9
:100A3000FF920F931F93CF93DF939091B700809114
:100A4000B100981709F0FAC08091B9008B3009F411
:100A500055C08C3030F4893059F08A3009F0EEC03E
:100A60002AC08E3909F48DC08F3909F0E7C069C0FA
:100A70008091BB0090E02091AF003091B00028172A
:100A8000390709F0DBC0BAD200D000D000D0EDB7F2
:100A9000FEB731968091B800ADB7BEB711968C9372
:100AA00011978091B100818388E7828381E08383FD
:100AB00089E090E05EC08091BB0090E02091AF00A3
:100AC0003091B0002817390709F0B8C0A9D200D07A
:100AD00000D000D0EDB7FEB731968091B800ADB729
:100AE000BEB711968C9311978091B100818388E7EE
:100AF000828381E083838AE090E03BC08091BB00E9
:100B000090E02091AF003091B0002817390709F02C
:100B100095C098D200D000D000D0EDB7FEB7319686
:100B20008091B800ADB7BEB711968C9311978091A4
:100B3000B100818388E7828381E083838BE090E04A
:100B400018C08091BB0040D200D000D000D0EDB7DB
:100B5000FEB731968091B800ADB7BEB711968C93B1
:100B60008091B100818388E7828381E083838FE96C
:100B700090E09583848364DE2DB73EB72A5F3F4FB4
:100B800057C0CDD08150843030F4E82FF0E0EF59D9
:100B9000FF4F808101C080E010918A00182B1092D5
:100BA0008A008091A2009091A3008130910519F4F0
:100BB0000091A00007C08230910519F400919E00B9
:100BC00001C000E08091AE0081111064C091AF00BF
:100BD000D091B0008091BB0090E0C817D90771F5A3
:100BE000E090B800F090B10091D0ADB7BEB71E97BD
:100BF0000FB6F894BEBF0FBEADBFEDB7FEB73196CE
:100C00001196EC92F18298E7928395E093832EE916
:100C100030E0358324831683178200871186D387BB
:100C2000C287848715860CDE2DB73EB7225F3F4F03
:100C30000FB6F8943EBF0FBE2DBFA5DEDF91CF915A
:100C40001F910F91FF90EF900895CF931092B300F2
:100C50001092B2008BB1887111F08CB124C06091F8
:100C6000B5007091B600CCB1FB01E954FF4FC083D1
:100C70008091B400882329F18091BA006330710516
:100C800019F48031C0F00FC090E00496681779071E
:100C900091F487EB90E0C7DD8C1711F002DE05C000
:100CA000A5DE882311F4FDDD0CC0C1DE1092B60074
:100CB0001092B50006C06F5F7F4F7093B6006093CF
:100CC000B500CF9108951F920F920FB60F92112485
:100CD0002F933F934F935F936F937F938F939F9344
:100CE000AF93BF93EF93FF93B0DFFF91EF91BF916D
:100CF000AF919F918F917F916F915F914F913F91B4
:100D00002F910F900FBE0F901F90189583B390E016
:100D100084709070959587959595879508958091A5
:100D2000EB0008958091EA00089583B390E082700B
:100D3000907095958795089583B390E08870907032
:100D400043E0959587954A95E1F708958091E600EF
:100D50009091E7002FEF833892072CF00197909342
:100D6000E7008093E60008958091E6009091E70007
:100D70008E3791052CF401969093E7008093E6005E
:100D800008958091E4009091E5002FEF8338920759
:100D90002CF001979093E5008093E40008958091F2
:100DA000E4009091E5008E3791052CF40196909324
:100DB000E5008093E40008952091E6003091E7007B
:100DC0008091E4009091E500121613062CF4181699
:100DD00019064CF082E008C01816190614F481E0D8
:100DE00003C083E001C084E08093EB00089580910C
:100DF0009C0090919D0086399105B0F481E080932C
:100E0000E3008CE291E09093E2008093E100109285
:100E1000EB001092E7001092E6001092E5001092AD
:100E2000E40084E690E02DC08091E300813081F4FD
:100E30008091E1009091E2009C012150304030937C
:100E4000E2002093E100009791F51092E3000895ED
:100E50006CDF882319F0813021F402C077DF01C0F4
:100E600083DF6ADF882319F0813021F402C089DF33
:100E700001C095DF8091E8009091E900009731F082
:100E800001979093E9008093E800089595DF109210
:100E9000E7001092E6001092E5001092E40084E66C
:100EA00090E09093E9008093E8001092EA000895A2
:100EB000CF93C1E0C093EA001092EB001092E700DC
:100EC0001092E6001092E5001092E40084E690E0B3
:100ED0009093E9008093E80087EF96E056D084B3C2
:100EE000817E84BB85B3817E85BBC093E3008CE2A9
:100EF00091E09093E2008093E100CF910895EDEEB0
:100F0000F0E089E0119211928150E1F71092EC002B
:100F10008BE085BD83E783BD89B7806889BF08956D
:100F20001F920F920FB60F9211242F933F934F935E
:100F30005F936F937F938F939F93AF93BF93CF9361
:100F4000EF93FF93C0E00BC0EC2FF0E0EE0FFF1F1C
:100F5000E351FF4F0190F081E02D0995CF5F809123
:100F6000EC00C81788F3FF91EF91CF91BF91AF913B
:100F70009F918F917F916F915F914F913F912F91B1
:100F80000F900FBE0F901F9018952091EC002A3003
:100F900058F4E22FF0E0EE0FFF1FE351FF4F918373
:100FA00080832F5F2093EC00089580910101909140
:100FB0000201009719F4109203010895019790938C
:100FC000020180930101089591B3906691BB80FF67
:100FD0000BC081E08093AE00969A80910B018064F3
:100FE00080930B01959A08951092AE009698809187
:100FF0000B018F7B80930B019598089581E088DA2F
:10100000882349F481E090E09093100180930F01D0
:1010100080E07EDA08951092100110920F01089579
:1010200082E076DA882349F482E090E09093100120
:1010300080930F0180E06CDA0895109210011092F5
:101040000F01089580E064DA1092100110920F01F0
:101050000895CF9380910401909105011816190607
:1010600034F40197909305018093040112C088EE37
:1010700093E0909305018093040180910601909183
:101080000701181619062CF4019790930701809315
:10109000060145DEC82F843011F0882339F42FEF84
:1010A0003FEF3093070120930601CCDF2091A2008F
:1010B0003091A3002130310511F4C13039F0209175
:1010C0000601309107012115310539F42FEF3FEF6B
:1010D0003093070120930601B5DF2091A2003091E3
:1010E000A3002230310511F4C23031F080910601A5
:1010F00090910701009739F48FEF9FEF90930701CC
:10110000809306019FDF80910F019091100100975D
:1011100061F02091A2003091A3002115310529F43E
:10112000F7D91092100110920F01CF91089520E08D
:1011300030E008C044EF51E0000041505040E1F77A
:101140002F5F3F4F82179307ACF7089520E030E000
:1011500008C04DE250E0000041505040E1F72F5FE1
:101160003F4F82179307ACF7089520E030E08217D5
:1011700093073CF000000000000000002F5F3F4F8D
:10118000F6CF08951092020110920101109203010E
:1011900085ED97E0FADE089521E020930301909316
:1011A00002018093010101C0A89580910301882369
:1011B000D9F70895F89481B5886181BD8DE081BD2E
:1011C000A8951092100110920F0110920B018FEF51
:1011D0009FEF9093070180930601109205011092F2
:1011E00004018DDECFDF43D763DE3AD9B2DB81B3B2
:1011F000806681BB789480E08BD910920C0181E0ED
:1012000080930A01809309018093080180937800FC
:1012100080E291EAA7E0B0E0A8950197A109B109A1
:10122000D9F7A89589E298E0B0DEA895FECF97FBA4
:10123000092E07260AD077FD04D00CD006D0002056
:101240001AF4709561957F4F0895F6F79095819502
:101250009F4F0895AA1BBB1B51E107C0AA1FBB1FCC
:10126000A617B70710F0A61BB70B881F991F5A9532
:10127000A9F780959095BC01CD010895F894FFCF12
:06128000631004001600DB
:00000001FF
