:100000001AC034C033C04DC731C030C02FC02EC05D
:100010002DC02CC02BC021C629C066C486C026C0F6
:1000200025C024C023C00CC2AEC1B3C1BDC1CFC165
:10003000D8C1E3C1EAC111241FBECFE5D4E0DEBFC1
:10004000CDBF10E0A0E6B0E0E2E7F1E102C005902C
:100050000D92A636B107D9F711E0A6E6B0E001C0CF
:100060001D92AD30B107E1F728D881C8C9CF1092F1
:10007000670010926600109269001092680010925A
:100080006B0010926A0010926D0010926C0010923A
:100090006F0010926E00109271001092700010921A
:1000A000730010927200109275001092740083E633
:1000B00080936000A098A89817B880B78F7E80BF03
:1000C0008DE886B981E890E021D7089520916000FD
:1000D000273011F02F5F01C020E0E22FF0E0EE0F9B
:1000E000FF1FEA59FF4F80819181009789F3209388
:1000F000600087B1807F87B987B1822B87B9369A34
:100100000895E4DF0895683078F4E62FF0E0EE0F0C
:10011000FF1FEA59FF4F91838083809160008336EF
:1001200019F410926000D2DF08951F920F920FB65B
:100130000F9211242F933F934F935F936F937F936D
:100140008F939F93AF93BF93EF93FF93E0916000E2
:10015000F0E0EE0FFF1FEA59FF4F0190F081E02D14
:100160000995FF91EF91BF91AF919F918F917F91F1
:100170006F915F914F913F912F910F900FBE0F9014
:100180001F90189583B390E08072907035E095953C
:1001900087953A95E1F780937600813051F0809110
:1001A000800090918100019690938100809380005F
:1001B00009C080917A0090917B00019690937B001A
:1001C00080937A0080B390E08270907095958795C7
:1001D00080937600813051F4809182009091830069
:1001E0000196909383008093820009C080917C00E7
:1001F00090917D00019690937D0080937C0080B368
:10020000817080937600813051F0809184009091CC
:1002100085000196909385008093840009C08091A9
:100220007E0090917F00019690937F0080937E00E6
:1002300080918600909187008436910531F0019677
:100240009093870080938600089521E02093880092
:1002500080918000909181008A35910518F010926C
:1002600077000DC080917A0090917B008A359105CE
:1002700018F02093770003C082E08093770080918C
:100280008200909183008A35910518F010927800D1
:100290000CC080917C0090917D008A35910510F012
:1002A00081E001C082E08093780080918400909189
:1002B00085008A35910518F0109279000CC0809164
:1002C0007E0090917F008A35910510F081E001C099
:1002D00082E080937900109287001092860010923D
:1002E00081001092800010927B0010927A00109290
:1002F00083001092820010927D0010927C00109278
:1003000085001092840010927F0010927E00089564
:10031000109288001092870010928600109281003F
:10032000109280001092830010928200109285003B
:100330001092840010927B0010927A0010927D003F
:1003400010927C0010927F0010927E0081E08093DA
:100350007700809378008093790082EC90E0D6D586
:10036000A598AD9881B38C7F81BB82B38C7F82BB13
:100370000895E091A600F0E0E830F10508F04DC0E6
:10038000ED5EFF4F0994979888B3887F88BB82E021
:1003900031C09798C09888B3866088BB1092A5003A
:1003A0001092A40083E026C08091A4009091A50043
:1003B000803F910531F4979888B3887F88BB8AE0A5
:1003C00019C001969093A5008093A4000895809190
:1003D0008900982F915090938900882389F586E0B1
:1003E00009C080918900982F9150909389008823AB
:1003F00039F587E08093A60008951092A60097989B
:10040000C29888B3836088BB08951092A60088B311
:100410008C7F88BB979AC29A08958091A40090918E
:10042000A5008A3F910539F41092A6001092A3000E
:100430001092A200089501969093A5008093A400C5
:10044000089584B190E045B1342F20E0822B932BA6
:1004500062E070E065D670939D0060939C00089503
:100460008F9A87B3876087BB979888B3887F88BB4C
:10047000979888B3887F88BB1092A5001092A4003B
:100480001092A6001092A3001092A20089EB91E0B6
:100490003DD581E292E060E036DE89E393E066E0FC
:1004A00032DE8EE193E067E02EDE8CE390E0909305
:1004B00099008093980090939B0080939A0084E623
:1004C00090E090939100809390009093930080939C
:1004D0009200109295001092940010929700109242
:1004E000960010928D0010928C0010928F00109246
:1004F0008E0010928B0010929D0010929C00109222
:100500009F0010929E001092A1001092A0000895EA
:100510008130C9F0813020F0823009F049C02AC012
:100520008091A2009091A30001978230910508F07C
:100530003FC081E08093A6008AEF90E09093A300F3
:100540008093A20033C08091A2009091A3008230DA
:10055000910570F58130910569F184E08093A600E2
:1005600081E090E09093A3008093A2009798C298B6
:10057000C09A19C02091A2003091A3002115310525
:1005800029F081E02230310599F415C085E080938F
:10059000A60082E090E09093A3008093A20088B32D
:1005A0008C7F88BB979A83E08093890081E00895CF
:1005B00080E0089581E0089590E0880F991FFC0184
:1005C000E856FF4F20813181FC01EC56FF4F261782
:1005D000370798F42081318142E02C3B340741F405
:1005E0001182108221E020938B0020938A0007C0A3
:1005F0002F5F3F4F3183208302C011821082FC01A4
:10060000E057FF4F20813181FC01E457FF4F26174F
:10061000370788F480819181883C910541F41182EB
:10062000108281E080938B0080938A000895019668
:1006300091838083089511821082089524B130E05F
:1006400045B1942F80E0282B392BC901880F991FC1
:1006500053E0220F331F5A95E1F7820F931F6BE18E
:1006600070E05ED56093A0007093A10081E0A4DFEC
:10067000089524B130E045B1942F80E0282B392B28
:10068000C901880F991F73E0220F331F7A95E1F794
:10069000820F931F6BE170E043D560939E007093CF
:1006A0009F0080E089DF089590939D0080939C00D7
:1006B000089510928B0008958091AB009091AC004A
:1006C0002091A7003091A8008217930710F4969A02
:1006D00004C02817390708F496982091A900309192
:1006E000AA008217930710F4959A04C028173907B7
:1006F00008F495988091AB009091AC009C012F5F1D
:100700003F4F3093AC002093AB008A3F910521F41A
:100710001092AC001092AB00089581B3806681BB4B
:1007200082B38F7982BB8CE593E0F0D31092A8005E
:100730001092A7001092AA001092A9001092AC008B
:100740001092AB0008950895A59AAD980895AD9ABA
:100750000895AD98089587B3877C87BB88B3886375
:1007600088BB81B3837E81BB82B38C6182BB8AE00C
:1007700090E07ED420B380B3A0B3E6B366B346B3B3
:10078000B0E0A095B095A071B070B595A79590E038
:100790008095909588709070959587958A2BF0E05C
:1007A000E095F095E870F07073E0F595E7957A952F
:1007B000E1F78E2B70E060957095607270707595A2
:1007C0006795862B50E04095509540715070440FCE
:1007D000551F842B30E0209530952470307035956E
:1007E0002795822B08951092CC001092CB00EDEC4F
:1007F000F0E080E090E01192019684319105D9F704
:100800000895FC0120E030E080E004C09191890F60
:100810002F5F3F4F26173707C9F708950F931F9390
:10082000CF93DF93CDB7DEB70A85CE010B962F812C
:100830002093CD0028852093CE0029852093CF00DA
:100840000093D000FC01A1EDB0E084E090E010E066
:100850000C5F1F4F04C020812D93019632968017A4
:100860009107C8F38DEC90E0B801CBDFF801E353BA
:10087000FF4F8083DF91CF911F910F9108951092C8
:10088000B6001092B500E7EBF0E080E090E0119246
:10089000019684319105D9F71092B4001092B300FB
:1008A0001092B2005F9A8AB180698AB908958091E6
:1008B000CB009091CC0001969093CC008093CB001C
:1008C0002091D00030E02B5F3F4F8217930730F428
:1008D00083539F4FFC0180818CB908953ADF8AB120
:1008E000877B8AB9CCDF08951F920F920FB60F92C3
:1008F00011242F933F934F935F936F937F938F9325
:100900009F93AF93BF93EF93FF93D1DFFF91EF914D
:10091000BF91AF919F918F917F916F915F914F9117
:100920003F912F910F900FBE0F901F90189510922E
:10093000AE0081E090E09093B0008093AF0004DFC0
:100940000ADF8093B10010BC83E089B986E880BDDE
:100950004ADF95DFFEDE8DED94E0D8D208958AB1AE
:100960008F768AB90895FBDFF2DE5E9A8AB18864D9
:100970008AB98AE090E07CD31092CC001092CB0030
:100980008091CD008CB908951092B3001092B200FE
:1009900008958091B2009091B30001969093B300B6
:1009A0008093B200853091053CF081E08093B400E3
:1009B0001092B3001092B2000895EBDF089581E029
:1009C0009091BA00903108F080E008959091B700BE
:1009D0008091B1009817B9F48091B900893038F04E
:1009E0008C3018F08E59823010F481E001C080E024
:1009F0009091BA00903108F080E09091B800925246
:100A0000983018F4089581E0089580E00895909159
:100A1000B7008091B100981709F0E0C08091B9004B
:100A20008A3081F18B3020F4893009F0D7C007C0BB
:100A30008B3009F44AC08E3909F0D0C075C080915E
:100A4000BB0090E02091AF003091B000281739072B
:100A500009F0C4C094D200D000D000D0EDB7FEB7EA
:100A600031968091B800ADB7BEB711968C931197AF
:100A70008091B100818388E7828381E0838389E06C
:100A800090E044C08091BB0090E02091AF00309195
:100A9000B0002817390709F0A1C083D200D000D0D8
:100AA00000D0EDB7FEB731968091B800ADB7BEB7B4
:100AB00011968C9311978091B100818388E782838E
:100AC00081E083838AE090E021C08091BB0090E0C8
:100AD0002091AF003091B0002817390709F07EC08F
:100AE00072D200D000D000D0EDB7FEB73196809121
:100AF000B800ADB7BEB711968C938091B1008183D9
:100B000088E7828381E083838BE090E09583848310
:100B100085DE2DB73EB72A5F3F4F0FB6F8943EBF34
:100B20000FBE2DBF20DF0895BBD08150843030F43C
:100B3000E82FF0E0EF59FF4F808101C080E0409145
:100B40008A00482B10928A008091A2009091A30005
:100B50008130910519F45091A00007C082309105B1
:100B600019F450919E0001C050E08091AE008111B7
:100B700040648091AF009091B0002091BB0030E0C4
:100B80008217930759F5ADB7BEB71C970FB6F89407
:100B9000BEBF0FBEADBFEDB7FEB731962091B80016
:100BA00011962C932091B100218328E7228324E021
:100BB00023832EE930E035832483468317825087D0
:100BC0001186938782872ADE2DB73EB7245F3F4F79
:100BD0000FB6F8943EBF0FBE2DBFC5DE0895CF936C
:100BE0001092B3001092B2008BB1887111F08CB1E9
:100BF00024C06091B5007091B600CCB1FB01E954FE
:100C0000FF4FC0838091B400882329F18091BA00FE
:100C10006330710519F48031C0F00FC090E0049684
:100C20006817790791F487EB90E0EBDD8C1711F0F2
:100C300026DE05C0CBDE882311F421DE0CC0E7DE02
:100C40001092B6001092B50006C06F5F7F4F709390
:100C5000B6006093B500CF9108951F920F920FB622
:100C60000F9211242F933F934F935F936F937F9332
:100C70008F939F93AF93BF93EF93FF93B0DFFF9159
:100C8000EF91BF91AF919F918F917F916F915F9104
:100C90004F913F912F910F900FBE0F901F9018957D
:100CA0008091EB0008958091EA00089583B390E06D
:100CB0008270907095958795089583B390E08870C1
:100CC000907033E0959587953A95E1F70895809176
:100CD000E6009091E7002FEF833892072CF0019700
:100CE0009093E7008093E60008958091E60090914C
:100CF000E7008E3791052CF401969093E7008093DE
:100D0000E60008958091E4009091E5002FEF83388C
:100D100092072CF001979093E5008093E4000895EA
:100D20008091E4009091E5008E3791052CF40196B6
:100D30009093E5008093E40008952091E6003091BF
:100D4000E7008091E4009091E500121613062CF460
:100D5000181619064CF082E008C01816190614F48B
:100D600081E003C083E001C084E08093EB0008953C
:100D700080919C0090919D0086399105B0F481E0AE
:100D80008093E3008CE291E09093E2008093E10095
:100D90001092EB001092E7001092E6001092E5002E
:100DA0001092E40084E690E02DC08091E300813051
:100DB00081F48091E1009091E2009C01215030404B
:100DC0003093E2002093E100009791F51092E30048
:100DD00008956CDF882319F0813021F402C077DF99
:100DE00001C083DF6ADF882319F0813021F402C05B
:100DF00089DF01C095DF8091E8009091E9000097BC
:100E000031F001979093E9008093E800089595DF11
:100E10001092E7001092E6001092E5001092E400B4
:100E200084E690E09093E9008093E8001092EA0055
:100E30000895CF93C1E0C093EA001092EB001092A6
:100E4000E7001092E6001092E5001092E40084E6BC
:100E500090E09093E9008093E80088EB96E056D00C
:100E600084B3817E84BB85B3817E85BBC093E30060
:100E70008CE291E09093E2008093E100CF9108959D
:100E8000EDEEF0E089E0119211928150E1F71092BD
:100E9000EC008BE085BD83E783BD89B7806889BF9F
:100EA00008951F920F920FB60F9211242F933F9324
:100EB0004F935F936F937F938F939F93AF93BF9362
:100EC000CF93EF93FF93C0E00BC0EC2FF0E0EE0F59
:100ED000FF1FE351FF4F0190F081E02D0995CF5F97
:100EE0008091EC00C81788F3FF91EF91CF91BF91EB
:100EF000AF919F918F917F916F915F914F913F91B2
:100F00002F910F900FBE0F901F9018952091EC001D
:100F10002A3058F4E22FF0E0EE0FFF1FE351FF4FAD
:100F2000918380832F5F2093EC00089580910101CD
:100F300090910201009719F410920301089501970E
:100F40009093020180930101089591B3906691BB43
:100F500080FF0BC081E08093AE00969A80910701DC
:100F6000806480930701959A08951092AE00969838
:100F7000809107018F7B809307019598089581E008
:100F8000C7DA882349F481E090E090930C018093C4
:100F90000B0180E0BDDA089510920C0110920B0154
:100FA000089582E0B5DA882349F482E090E09093D6
:100FB0000C0180930B0180E0ABDA089510920C01D4
:100FC00010920B01089580E0A3DA10920C011092A8
:100FD0000B010895CF9364DEC82F843011F088236D
:100FE00009F4F1DF2091A2003091A30021303105F6
:100FF00019F4C13009F4E7DF2091A2003091A30079
:101000002230310519F4C23009F4DDDF80910B0183
:1010100090910C01009761F02091A2003091A30003
:101020002115310529F474DA10920C0110920B018C
:10103000CF91089520E030E008C044EF51E0000077
:1010400041505040E1F72F5F3F4F82179307ACF7B5
:10105000089520E030E008C04DE250E0000041502B
:101060005040E1F72F5F3F4F82179307ACF7089589
:1010700020E030E0821793073CF000000000000001
:1010800000002F5F3F4FF6CF08951092020110929B
:1010900001011092030186E997E038DF089521E00D
:1010A00020930301909302018093010101C0A89550
:1010B000809103018823D9F70895F89481B5886158
:1010C00081BD8DE081BDA89510920C0110920B019D
:1010D00010920701D5DED9DFCAD7ABDEC1D927DC34
:1010E00081B3806681BB789480E012DA10920801A7
:1010F00081E0809306018093050180930401809331
:10110000780080E291EAA7E0B0E0A8950197A109F4
:10111000B109D9F7A8958AEE97E0F8DEA895FECF39
:1011200097FB092E07260AD077FD04D00CD006D0F5
:1011300000201AF4709561957F4F0895F6F7909509
:1011400081959F4F0895AA1BBB1B51E107C0AA1FA1
:10115000BB1FA617B70710F0A61BB70B881F991F58
:101160005A95A9F780959095BC01CD010895F89402
:02117000FFCFAF
:06117200631004001600EA
:00000001FF
