:100000001AC034C033C0ECC731C030C02FC02EC0BE
:100010002DC02CC02BC0AFC629C0DEC48AC026C0EC
:1000200025C024C023C02AC2C4C1CBC1D7C1EBC1E3
:10003000F6C101C208C211241FBECFE5D4E0DEBF65
:10004000CDBF10E0A0E6B0E0E0EEF2E102C0059026
:100050000D92A236B107D9F711E0A2E6B0E001C0D7
:100060001D92A630B107E1F7CED838C9C9CF10929A
:10007000630010926200109265001092640010926A
:10008000670010926600109269001092680010924A
:100090006B0010926A0010926D0010926C0010922A
:1000A0006F0010926E00109271001092700083E643
:1000B00080936000A098A89817B880B78F7E80BF03
:1000C0008DE886B985E890E0C9D708954091600031
:1000D00050E082E690E0473011F04F5F01C0452FBD
:1000E000E42FF0E0EE0FFF1FE80FF91F20813181B0
:1000F0002115310581F34093600087B1807F87B976
:1001000087B1482B47B9369A0895E0DF08956830E3
:1001100078F4E62FF0E0EE0FFF1FEE59FF4F9183CA
:10012000808380916000833619F410926000CEDFE6
:1001300008951F920F920FB60F9211242F933F93A1
:100140004F935F936F937F938F939F93AF93BF93DF
:10015000EF93FF93E0916000F0E0EE0FFF1FEE5988
:10016000FF4F0190F081E02D0995FF91EF91BF9134
:10017000AF919F918F917F916F915F914F913F913F
:100180002F910F900FBE0F901F90189583B390E0A2
:10019000807290709595879595958795959587959B
:1001A000959587959595879580937200882319F08A
:1001B0008130A1F40AC080917C0090917D0001966D
:1001C00090937D0080937C0009C08091760090918F
:1001D00077000196909377008093760080B390E04B
:1001E000827090709595879580937200882361F056
:1001F000813099F480917E0090917F0001969093D8
:100200007F0080937E0009C08091780090917900F2
:100210000196909379008093780080B381708093E9
:100220007200882319F08130A1F40AC08091800007
:10023000909181000196909381008093800009C085
:1002400080917A0090917B00019690937B0080933F
:100250007A0080918200909183008436910531F07C
:1002600001969093830080938200089581E08093AB
:10027000840080917C0090917D008A35910518F072
:10028000109273000EC080917600909177008A35AD
:10029000910520F081E08093730003C082E0809399
:1002A000730080917E0090917F008A35910518F04F
:1002B000109274000EC080917800909179008A3578
:1002C000910520F081E08093740003C082E0809368
:1002D000740080918000909181008A35910518F01A
:1002E000109275000EC080917A0090917B008A3543
:1002F000910520F081E08093750003C082E0809337
:100300007500109283001092820010927D0010926E
:100310007C00109277001092760010927F0010926D
:100320007E00109279001092780010928100109255
:10033000800010927B0010927A0008951092840041
:10034000109283001092820010927D0010927C0027
:1003500010927F0010927E00109281001092800017
:100360001092770010927600109279001092780027
:1003700010927B0010927A0081E08093730080934A
:1003800074008093750086EC90E068D6A598AD98CF
:1003900081B38C7F81BB82B38C7F82BB0895E09157
:1003A000A200F0E0E830F10508F055C0ED5EFF4F27
:1003B0000994979888B3887F88BB82E08093A200D5
:1003C00008959798C09888B3866088BB1092A10062
:1003D0001092A00083E08093A20008958091A00075
:1003E0009091A100803F910541F4979888B3887F50
:1003F00088BB8AE08093A200089501969093A100A3
:100400008093A000089580918500982F915090933B
:100410008500882399F586E08093A2000895809155
:100420008500982F915090938500882339F587E0B7
:100430008093A20008951092A2009798C29888B362
:10044000836088BB08951092A20088B38C7F88BB1C
:10045000979AC29A08958091A0009091A1008A3F36
:10046000910539F41092A20010929F0010929E0004
:10047000089501969093A1008093A00008958F9A0B
:1004800087B3876087BB979888B3887F88BB979826
:1004900088B3887F88BB1092A1001092A0001092B0
:1004A000A20010929F0010929E008FEC91E0D6D592
:1004B00085EA93E060E02BDE82E893E066E027DEE9
:1004C00084E693E067E023DE8CE390E09093950070
:1004D00080939400909397008093960084E690E038
:1004E00090938D0080938C0090938F0080938E006A
:1004F000109291001092900010929300109292002E
:10050000109289001092880010928B0010928A003D
:1005100010928700109299001092980010929B0000
:1005200010929A0010929D0010929C0008958130C4
:10053000F9F0813020F0823009F054C034C080914D
:100540009E0090919F009C01215030402230310547
:1005500008F04AC0009709F449C081E08093A200E6
:100560008AEF90E090939F0080939E0081E0089531
:1005700080919E0090919F0082309105C8F5813056
:100580009105C1F184E08093A20081E090E0909316
:100590009F0080939E009798C298C09A83E08093B2
:1005A000850081E0089520919E0030919F002115E3
:1005B000310531F081E022303105E9F080E0089525
:1005C00085E08093A20082E090E090939F0080936A
:1005D0009E0088B38C7F88BB979A83E080938500C8
:1005E00081E0089580E0089580E0089581E0089515
:1005F00080E0089581E0089590E0FC01EE0FFF1F78
:10060000EC56FF4F208131812617370718F5FC0182
:10061000EE0FFF1FE057FF4F4081518122E04C3B1E
:10062000520769F4FC01EE0FFF1FE057FF4F1182E4
:10063000108221E0209387002093860012C09C0145
:10064000220F331F20573F4F4F5F5F4FF9015183F8
:10065000408307C0FC01EE0FFF1FE057FF4F1182E0
:100660001082FC01EE0FFF1FE457FF4F2081318104
:100670002617370708F5FC01EE0FFF1FE857FF4F5D
:1006800020813181283C310569F4FC01EE0FFF1F08
:10069000E857FF4F1182108281E08093870080939A
:1006A00086000895FC01EE0FFF1FE857FF4F2F5FF4
:1006B0003F4F318320830895FC01EE0FFF1FE85761
:1006C000FF4F11821082089524B130E045B1942F7C
:1006D00080E0822B932BAC01440F551F9C01220F0D
:1006E000331F220F331F220F331FCA01820F931FA4
:1006F0006BE170E0CCD560939C0070939D0081E02D
:100700007BDF089524B130E045B1942F80E0822B47
:10071000932BAC01440F551F9C01220F331F220F56
:10072000331F220F331FCA01820F931F6BE170E04A
:10073000AED560939A0070939B0080E05DDF0895D2
:100740009093990080939800089524B130E045B1CA
:10075000942F80E0822B932B99230CF4019695958E
:100760008795EEDF08951092870008952091A300E9
:100770003091A4008091A7009091A8008217930760
:1007800010F4969A04C02817390708F49698209117
:10079000A5003091A6008091A7009091A800821733
:1007A000930710F4959A04C02817390708F4959810
:1007B0008091A7009091A8009C012F5F3F4F30933C
:1007C000A8002093A7008A3F910521F41092A80069
:1007D0001092A700089581B3806681BB82B38F79A0
:1007E00082BB86EB93E03AD41092A4001092A3004F
:1007F0001092A6001092A5001092A8001092A700D7
:1008000008950895A59AAD980895AD9A0895AD9864
:100810000895CF93DF9387B3877C87BB88B38863C2
:1008200088BB81B3837E81BB82B38C6182BB8AE04B
:1008300090E0CED420B3A0B3E0B3C6B366B396B312
:10084000F0E0E095F095E071F070F595E795B0E097
:10085000A095B095A870B070B595A795EA2BD0E09B
:10086000C095D095C870D070DE01B595A795B595A7
:10087000A795B595A795AE2B70E0609570956072C1
:100880007070AB0155954795A42B492F50E04095CA
:10089000509540715070CA01880F991F8A2B30E023
:1008A000209530952470307035952795822BDF91F7
:1008B000CF9108951092C5001092C400E6ECF0E0CC
:1008C000CF0144961192E817F907E1F708956115F1
:1008D000710569F0E82FF92F20E030E080E0919178
:1008E000890F2F5F3F4F26173707C9F7089580E01C
:1008F0000895EF92FF920F931F93CF93DF93CDB79D
:10090000DEB72C85CE010D9639853093C6003A8529
:100910003093C7003B853093C8002093C900022F55
:1009200010E0EE24FF246894E2F8E00EF11E35E0BA
:10093000E316F10468F0AAECB0E0AD01420F511DDE
:100940009A01FC01029640814D93A217B307C9F7A3
:1009500006EC10E0C801B701BADF0E0D1F1DF8014B
:100960008083DF91CF911F910F91FF90EF900895B9
:100970001092AF001092AE00E0EBF0E0CF01449691
:100980001192E817F907E1F71092AD001092AC0050
:100990001092AB005F9A8AB180698AB908958091FC
:1009A000C4009091C50001969093C5008093C40047
:1009B0002091C90030E02B5F3F4F8217930730F43E
:1009C0008A539F4FFC0180818CB9089520DF8AB142
:1009D000877B8AB9CDDF08951F920F920FB60F92D1
:1009E00011242F933F934F935F936F937F938F9334
:1009F0009F93AF93BF93EF93FF93D1DFFF91EF915D
:100A0000BF91AF919F918F917F916F915F914F9126
:100A10003F912F910F900FBE0F901F901895F2DE0F
:100A2000F8DE8093AA0010BC83E089B986E880BD17
:100A300041DF9EDFECDE8AE495E010D308958AB1B1
:100A40008F768AB90895FBDFE0DE5E9A8AB188640A
:100A50008AB98AE090E0BCD31092C5001092C4001D
:100A60008091C6008CB908951092AC001092AB0032
:100A700008958091AB009091AC0001969093AC00EA
:100A80008093AB008530910524F081E08093AD0028
:100A9000EBDF0895EEDF089581E09091B30090318F
:100AA00008F080E00895CF939091B0008091AA0063
:100AB0009817B1F48091B200893038F08C3018F07A
:100AC0008E59823010F4C1E001C0C0E0E5DF882318
:100AD00009F4C0E08091B1008252883018F403C05C
:100AE000C1E001C0C0E08C2FCF9108959091B0007B
:100AF0008091AA00981709F0EEC08091B2008B3067
:100B000009F453C08C3030F4893059F08A3009F040
:100B1000E1C029C08E3909F48EC08F3909F0DAC0DE
:100B200066C0D0D200D000D000D0EDB7FEB731966D
:100B30008091B100ADB7BEB711968C938091AA0099
:100B4000818388E7828381E0838389E090E09583D5
:100B50008483CFDE8DB79EB706960FB6F8949EBFFE
:100B60000FBE8DBFB7C0C0D200D000D000D0EDB74F
:100B7000FEB731968091B100ADB7BEB711968C9398
:100B80008091AA00818388E7828381E083838AE061
:100B900090E095838483ADDE8DB79EB706960FB641
:100BA000F8949EBF0FBE8DBF95C0B0D200D000D0CC
:100BB00000D0EDB7FEB731968091B100ADB7BEB7AA
:100BC00011968C938091AA00818388E7828381E0CB
:100BD00083838BE090E0958384838BDE8DB79EB713
:100BE00006960FB6F8949EBF0FBE8DBF73C080915E
:100BF000B40053D200D000D000D0EDB7FEB731968C
:100C00008091B100ADB7BEB711968C938091AA00C8
:100C1000818388E7828381E083838FE990E09583F5
:100C2000848367DE8DB79EB706960FB6F8949EBF95
:100C30000FBE8DBF4FC0C2D0823031F0843031F052
:100C4000813031F040E005C044E003C046E101C01E
:100C500040E1209186001092860080919E00909144
:100C60009F008130910519F430919C0007C08230BB
:100C7000910519F430919A0001C030E09091000183
:100C8000292BADB7BEB71A970FB6F894BEBF0FBEEB
:100C9000ADBFEDB7FEB731969091B10011969C9320
:100CA0009091AA00918398E7928393E093838EE9D1
:100CB00090E095838483822F842B868317823087EC
:100CC000118617DE8DB79EB70A960FB6F8949EBFB1
:100CD0000FBE8DBFB8DE0895EF92FF920F931F9362
:100CE000CF93DF93C1DE8BB1887119F08CB140DEF8
:100CF0003BC0E090AE00F090AF008CB1F701E05542
:100D0000FF4F80838091AD00882371F183E0E81666
:100D1000F10429F4C1DE882301F52ADE25C0C09143
:100D2000B300D0E02496EC16FD06B9F400EB10E019
:100D3000C801B701CCDDC00FD11F9881891711F010
:100D400017DE05C0B0DE882311F412DE0DC0CEDE42
:100D50001092AF001092AE0007C00894E11CF11C85
:100D6000F092AF00E092AE00DF91CF911F910F9112
:100D7000FF90EF9008951F920F920FB60F921124DB
:100D80002F933F934F935F936F937F938F939F9393
:100D9000AF93BF93EF93FF939FDFFF91EF91BF91CD
:100DA000AF919F918F917F916F915F914F913F9103
:100DB0002F910F900FBE0F901F9018958091E40017
:100DC00008958091E300089583B390E0827090705D
:100DD00095958795089583B390E088709070959568
:100DE0008795959587959595879508958091DF00CE
:100DF0009091E0002FEF833892072CF001979093A9
:100E0000E0008093DF0008958091DF009091E00082
:100E10008E3791052CF401969093E0008093DF00CB
:100E200008958091DD009091DE002FEF83389207C6
:100E30002CF001979093DE008093DD00089580915F
:100E4000DD009091DE008E3791052CF40196909391
:100E5000DE008093DD0008958091DF009091E00036
:100E6000181619065CF48091DD009091DE001816CA
:100E700019069CF082E08093E40008958091DD00E3
:100E80009091DE001816190624F481E08093E400A6
:100E9000089583E08093E400089584E08093E40063
:100EA0000895809198009091990086399105D0F429
:100EB00081E08093DC008CE291E09093DB008093F2
:100EC000DA001092E4001092E0001092DF0010921D
:100ED000DE001092DD0084E690E09093E2008093C3
:100EE000E10008958091DC00813081F48091DA0086
:100EF0009091DB009C01215030403093DB00209327
:100F0000DA00009791F51092DC0008955DDF8823E8
:100F100019F0813021F402C069DF01C075DF5BDFA9
:100F2000882319F0813021F402C07BDF01C087DF04
:100F30008091E1009091E200009731F00197909349
:100F4000E2008093E100089587DF1092E0001092A4
:100F5000DF001092DE001092DD0084E690E09093B6
:100F6000E2008093E1001092E3000895CF93C1E086
:100F7000C093E3001092E4001092E0001092DF00B2
:100F80001092DE001092DD0084E690E09093E20083
:100F90008093E10081E597E061D084B3817E84BBDA
:100FA00085B3817E85BBC093DC008CE291E0909399
:100FB000DB008093DA00CF910895E6EEF0E0CF01F8
:100FC000429611921192E817F907D9F71092E500AD
:100FD0008BE085BD83E783BD89B7806889BF0895AD
:100FE0001F920F920FB60F9211240F931F932F93FE
:100FF0003F934F935F936F937F938F939F93AF93A1
:10100000BF93CF93EF93FF938091E500882391F0F6
:10101000C0E006EE10E0EC2FF0E0EE0FFF1FE00F57
:10102000F11F0190F081E02D0995CF5F8091E500DF
:10103000C81788F3FF91EF91CF91BF91AF919F9126
:101040008F917F916F915F914F913F912F911F9160
:101050000F910F900FBE0F901F9018952091E500F3
:101060002A3058F4E22FF0E0EE0FFF1FEA51FF4F55
:10107000918380832F5F2093E50008958091FA008B
:101080009091FB00009719F41092FC0008950197CD
:101090009093FB008093FA00089591B3906691BB02
:1010A00080FF08C0969A80910001806480930001BF
:1010B000959A08959698809100018F7B8093000106
:1010C0009598089581E033DA882349F481E090E02F
:1010D000909305018093040180E029DA089510922D
:1010E000050110920401089582E021DA882349F471
:1010F00082E090E0909305018093040180E017DA8C
:1011000008951092050110920401089580E00FDA0D
:1011100010920501109204010895CF934FDEC82F5D
:10112000843011F0882309F4F1DF80919E009091C2
:101130009F008130910519F4C13009F4E7DF8091F7
:101140009E0090919F008230910519F4C23009F4FD
:10115000DDDF8091040190910501009761F02091FD
:101160009E0030919F002115310529F4E0D910929D
:10117000050110920401CF910895AC014F5F5F4FBC
:101180001416150654F0089500000197E9F72F5F33
:101190003F4F241735072CF0089520E030E064EF2E
:1011A00071E0CB01F1CFAC014F5F5F4F1416150614
:1011B00054F0089500000197E9F72F5F3F4F24177F
:1011C00035071CF0089520E030E08DE290E0F2CF8A
:1011D0009C012F5F3F4F1216130654F480E090E0FD
:1011E0000000000000000000019682179307C4F37E
:1011F00008951092FB001092FA001092FC008EE30A
:1012000098E02CDF0895F89481B5886181BD8DE068
:1012100081BDA89510920501109204011092000161
:10122000CCDEE7DF24D7A2DE2AD9F9DB81B38066E2
:1012300081BB789480E07BD91092010181E080939A
:10124000FF008093FE008093FD008093740080E295
:1012500091EAA7E0B0E0A8950197A109B109D9F7F3
:10126000A8958DE898E0FADEA895FECF21E02093BE
:10127000FC009093FB008093FA008091FC0088238F
:1012800029F0A8958091FC008823D9F7089597FB51
:10129000092E07260AD077FD04D00CD006D00020F6
:1012A0001AF4709561957F4F0895F6F790958195A2
:1012B0009F4F0895AA1BBB1B51E107C0AA1FBB1F6C
:1012C000A617B70710F0A61BB70B881F991F5A95D2
:1012D000A9F780959095BC01CD010895F894FFCFB2
:0212E0006300A9
:00000001FF
