:100000001AC034C033C014C831C030C02FC02EC095
:100010002DC02CC02BC02AC029C028C08AC026C031
:1000200025C024C023C02AC2C4C1CBC1D7C1EBC1E3
:10003000F6C101C208C211241FBECFE5D4E0DEBF65
:10004000CDBF10E0A0E6B0E0E0E3F3E102C0059030
:100050000D92A236B107D9F711E0A2E6B0E001C0D7
:100060001D92A231B107E1F7F6D860C9C9CF10924D
:10007000630010926200109265001092640010926A
:10008000670010926600109269001092680010924A
:100090006B0010926A0010926D0010926C0010922A
:1000A0006F0010926E00109271001092700083E643
:1000B00080936000A098A89817B880B78F7E80BF03
:1000C0008DE886B985E890E0F1D708954091600009
:1000D00050E082E690E0473011F04F5F01C0452FBD
:1000E000E42FF0E0EE0FFF1FE80FF91F20813181B0
:1000F0002115310581F34093600087B1807F87B976
:1001000087B1482B47B9369A0895E0DF08956830E3
:1001100078F4E62FF0E0EE0FFF1FEE59FF4F9183CA
:10012000808380916000833619F410926000CEDFE6
:1001300008951F920F920FB60F9211242F933F93A1
:100140004F935F936F937F938F939F93AF93BF93DF
:10015000EF93FF93E0916000F0E0EE0FFF1FEE5988
:10016000FF4F0190F081E02D0995FF91EF91BF9134
:10017000AF919F918F917F916F915F914F913F913F
:100180002F910F900FBE0F901F90189583B390E0A2
:10019000807290709595879595958795959587959B
:1001A000959587959595879580937200882319F08A
:1001B0008130A1F40AC080917C0090917D0001966D
:1001C00090937D0080937C0009C08091760090918F
:1001D00077000196909377008093760080B390E04B
:1001E000827090709595879580937200882361F056
:1001F000813099F480917E0090917F0001969093D8
:100200007F0080937E0009C08091780090917900F2
:100210000196909379008093780080B381708093E9
:100220007200882319F08130A1F40AC08091800007
:10023000909181000196909381008093800009C085
:1002400080917A0090917B00019690937B0080933F
:100250007A0080918200909183008436910531F07C
:1002600001969093830080938200089581E08093AB
:10027000840080917C0090917D008A35910518F072
:10028000109273000EC080917600909177008A35AD
:10029000910520F081E08093730003C082E0809399
:1002A000730080917E0090917F008A35910518F04F
:1002B000109274000EC080917800909179008A3578
:1002C000910520F081E08093740003C082E0809368
:1002D000740080918000909181008A35910518F01A
:1002E000109275000EC080917A0090917B008A3543
:1002F000910520F081E08093750003C082E0809337
:100300007500109283001092820010927D0010926E
:100310007C00109277001092760010927F0010926D
:100320007E00109279001092780010928100109255
:10033000800010927B0010927A0008951092840041
:10034000109283001092820010927D0010927C0027
:1003500010927F0010927E00109281001092800017
:100360001092770010927600109279001092780027
:1003700010927B0010927A0081E08093730080934A
:1003800074008093750086EC90E090D6A598AD98A7
:1003900081B38C7F81BB82B38C7F82BB0895E09157
:1003A000A200F0E0E830F10508F055C0ED5EFF4F27
:1003B0000994979888B3887F88BB82E08093A200D5
:1003C00008959798C09888B3866088BB1092A10062
:1003D0001092A00083E08093A20008958091A00075
:1003E0009091A100803F910541F4979888B3887F50
:1003F00088BB8AE08093A200089501969093A100A3
:100400008093A000089580918500982F915090933B
:100410008500882399F586E08093A2000895809155
:100420008500982F915090938500882339F587E0B7
:100430008093A20008951092A2009798C29888B362
:10044000836088BB08951092A20088B38C7F88BB1C
:10045000979AC29A08958091A0009091A1008A3F36
:10046000910539F41092A20010929F0010929E0004
:10047000089501969093A1008093A00008958F9A0B
:1004800087B3876087BB979888B3887F88BB979826
:1004900088B3887F88BB1092A1001092A0001092B0
:1004A000A20010929F0010929E008FEC91E0FED56A
:1004B00085EA93E060E02BDE82E893E066E027DEE9
:1004C00084E693E067E023DE8CE390E09093950070
:1004D00080939400909397008093960084E690E038
:1004E00090938D0080938C0090938F0080938E006A
:1004F000109291001092900010929300109292002E
:10050000109289001092880010928B0010928A003D
:1005100010928700109299001092980010929B0000
:1005200010929A0010929D0010929C0008958130C4
:10053000F9F0813020F0823009F054C034C080914D
:100540009E0090919F009C01215030402230310547
:1005500008F04AC0009709F449C081E08093A200E6
:100560008AEF90E090939F0080939E0081E0089531
:1005700080919E0090919F0082309105C8F5813056
:100580009105C1F184E08093A20081E090E0909316
:100590009F0080939E009798C298C09A83E08093B2
:1005A000850081E0089520919E0030919F002115E3
:1005B000310531F081E022303105E9F080E0089525
:1005C00085E08093A20082E090E090939F0080936A
:1005D0009E0088B38C7F88BB979A83E080938500C8
:1005E00081E0089580E0089580E0089581E0089515
:1005F00080E0089581E0089590E0FC01EE0FFF1F78
:10060000EC56FF4F208131812617370718F5FC0182
:10061000EE0FFF1FE057FF4F4081518122E04C3B1E
:10062000520769F4FC01EE0FFF1FE057FF4F1182E4
:10063000108221E0209387002093860012C09C0145
:10064000220F331F20573F4F4F5F5F4FF9015183F8
:10065000408307C0FC01EE0FFF1FE057FF4F1182E0
:100660001082FC01EE0FFF1FE457FF4F2081318104
:100670002617370708F5FC01EE0FFF1FE857FF4F5D
:1006800020813181283C310569F4FC01EE0FFF1F08
:10069000E857FF4F1182108281E08093870080939A
:1006A00086000895FC01EE0FFF1FE857FF4F2F5FF4
:1006B0003F4F318320830895FC01EE0FFF1FE85761
:1006C000FF4F11821082089524B130E045B1942F7C
:1006D00080E0822B932BAC01440F551F9C01220F0D
:1006E000331F220F331F220F331FCA01820F931FA4
:1006F0006BE170E0F4D560939C0070939D0081E005
:100700007BDF089524B130E045B1942F80E0822B47
:10071000932BAC01440F551F9C01220F331F220F56
:10072000331F220F331FCA01820F931F6BE170E04A
:10073000D6D560939A0070939B0080E05DDF0895AA
:100740009093990080939800089524B130E045B1CA
:10075000942F80E0822B932B99230CF4019695958E
:100760008795EEDF08951092870008952091A300E9
:100770003091A4008091A7009091A8008217930760
:1007800010F4969A04C02817390708F49698209117
:10079000A5003091A6008091A7009091A800821733
:1007A000930710F4959A04C02817390708F4959810
:1007B0008091A7009091A8009C012F5F3F4F30933C
:1007C000A8002093A7008A3F910521F41092A80069
:1007D0001092A700089581B3806681BB82B38F79A0
:1007E00082BB86EB93E062D41092A4001092A30027
:1007F0001092A6001092A5001092A8001092A700D7
:1008000008950895A59A0895AD9A0895AD9808950C
:10081000CF92DF92EF92FF920F931F93F8011BB8D4
:1008200090ED9AB996E890BD60BD49B98093E50016
:100830003093E4002093E3001093E2000093E10082
:10084000F092E000E092DF00D092DE00C092DD0086
:100850000995E091DD00F091DE000995549A5098D9
:1008600085EA96E023D41F910F91FF90EF90DF90DF
:10087000CF900895CF93DF93CDB7DEB748858091B1
:10088000C400882351F59E01275F3F4F8D818093DF
:10089000B0008E818093B1008F818093B20040932D
:1008A000B30050E04C5F5F4F453051059CF084E051
:1008B00090E0A4E060EB70E0F9012E5F3F4F860FFF
:1008C000971FB081FC01B083AF5F8A2F90E084173F
:1008D000950794F381E08093C400DF91CF91089550
:1008E0002091B300422F4C5F71F0E0EBF0E0CF01BC
:1008F00001962D5F820F911D20E03191230FE817A3
:10090000F907D9F701C020E0E0EBF0E0E40FF11DBA
:10091000208308958091AE00813079F54091AF0039
:10092000242F30E08091B30090E005962817390716
:10093000C1F04431B0F4E091DF00F091E00009959E
:10094000539A54988AE090E06BD48091AF00E0EB2A
:10095000F0E0E80FF11D90819CB98F5F8093AF00AC
:100960000895E091DD00F091DE000995549A5098C9
:100970001092C4001092AE00AD9808958091AE0020
:10098000882361F48091C400882341F0AD9A81E00E
:100990008093AE00A5DF1092AF00BCDF0895CF9327
:1009A000DF93CDB7DEB748859E01275F3F4F8D812E
:1009B0008093B0008E818093B1008F818093B200CC
:1009C0004093B30050E04C5F5F4F453051059CF0C1
:1009D00084E090E0A4E060EB70E0F9012E5F3F4F0F
:1009E000860F971FB081FC01B083AF5F8A2F90E024
:1009F0008417950794F381E08093C400BFDFDF91F3
:100A0000CF9108958091CA008B3009F453C08C3087
:100A100030F4893059F08A3009F0E6C029C08E39A7
:100A200009F48EC08F3909F0DFC066C073D300D0DF
:100A300000D000D0EDB7FEB731968091C900ADB7B8
:100A4000BEB711968C938091C800818388E782831A
:100A500081E0838389E090E095838483A0DF8DB774
:100A60009EB706960FB6F8949EBF0FBE8DBF089531
:100A700063D300D000D000D0EDB7FEB7319680919F
:100A8000C900ADB7BEB711968C938091C800818321
:100A900088E7828381E083838AE090E09583848382
:100AA0007EDF8DB79EB706960FB6F8949EBF0FBE39
:100AB0008DBF089553D300D000D000D0EDB7FEB75E
:100AC00031968091C900ADB7BEB711968C938091D5
:100AD000C800818388E7828381E083838BE090E094
:100AE000958384835CDF8DB79EB706960FB6F89426
:100AF0009EBF0FBE8DBF08958091CC00F6D200D06E
:100B000000D000D0EDB7FEB731968091C900ADB7E7
:100B1000BEB711968C938091C800818388E7828349
:100B200081E083838FE990E09583848338DF8DB7FC
:100B30009EB706960FB6F8949EBF0FBE8DBF089560
:100B400065D1823031F0843031F0813031F050E0C5
:100B500005C054E003C056E101C050E14091860059
:100B60001092860080919E0090919F0081309105A7
:100B700029F420919C0030919D000AC0823091059B
:100B800029F420919A0030919B0002C020E030E0CF
:100B900090910C01492BADB7BEB71A970FB6F894D8
:100BA000BEBF0FBEADBFEDB7FEB731969091C90085
:100BB00011969C939091C800918398E7928393E05B
:100BC00093838EE990E095838483842F852B86839D
:100BD000178231872087E3DE8DB79EB70A960FB65E
:100BE000F8949EBF0FBE8DBF08951F920F920FB64F
:100BF0000F9211242F933F934F935F936F937F93A3
:100C00008F939F93AF93BF93EF93FF9383DEFF91F7
:100C1000EF91BF91AF919F918F917F916F915F9174
:100C20004F913F912F910F900FBE0F901F901895ED
:100C30002091CB00422F4C5F4431D8F4442371F013
:100C4000E8ECF0E0CF0101962D5F820F911D20E0CE
:100C50003191230FE817F907D9F701C020E0E8EC3C
:100C6000F0E0E40FF11D81E09081291719F080E098
:100C7000089580E008951F920F920FB60F921124ED
:100C80002F933F934F935F936F937F938F939F9394
:100C9000AF93BF93EF93FF938BB11092C60088710F
:100CA00091F59CB18091C700882351F48091E500B3
:100CB000981751F59093C80081E08093C70024C035
:100CC000E8ECF0E0E80FF11D9083482F4F5F409370
:100CD000C7004530C8F0242F30E08091CB0090E071
:100CE00005962817390711F0453171F41092C700A5
:100CF0009FDF813049F4E091E300F091E400309708
:100D000019F0099501C08CB1FF91EF91BF91AF919E
:100D10009F918F917F916F915F914F913F912F9113
:100D20000F900FBE0F901F9018958091C6008930CC
:100D300031F48AE08093C6001092C70008958A308B
:100D400019F08F5F8093C6000895EFDF0895CF926A
:100D5000DF92EF92FF920F931F9381E080937300D5
:100D60008093750087B3877C87BB88B3886388BB13
:100D700081B3837E81BB82B38C6182BB00000000A3
:100D80000000000080B380958C7190E09595879568
:100D90008093A90026B330E02095309528703070FC
:100DA000359527953595279535952795820F80930D
:100DB000A90046B350E040955095407250709A019A
:100DC00035952795280F2093A90086B380958071CB
:100DD000880F820F8093A90060E043E022E035E0B5
:100DE00002E014E00F2EF4E0EF2EF4E0FF2EF02DE1
:100DF0000F2EF6E0CF2EF4E0DF2EF02D09DD1F914F
:100E00000F91FF90EF90DF90CF9008958091F000C8
:100E100008958091EF00089583B390E08270907000
:100E200095958795089583B390E088709070959517
:100E30008795959587959595879508958091EB0071
:100E40009091EC002FEF833892072CF0019790934C
:100E5000EC008093EB0008958091EB009091EC0002
:100E60008E3791052CF401969093EC008093EB0063
:100E700008958091E9009091EA002FEF833892075E
:100E80002CF001979093EA008093E90008958091F7
:100E9000E9009091EA008E3791052CF40196909329
:100EA000EA008093E90008958091EB009091EC00B6
:100EB000181619065CF48091E9009091EA00181662
:100EC00019069CF082E08093F00008958091E9007B
:100ED0009091EA001816190624F481E08093F0003E
:100EE000089583E08093F000089584E08093F000FB
:100EF0000895809198009091990086399105D0F4D9
:100F000081E08093E8008CE291E09093E700809389
:100F1000E6001092F0001092EC001092EB0010929C
:100F2000EA001092E90084E690E09093EE0080934E
:100F3000ED0008958091E800813081F48091E60011
:100F40009091E7009C01215030403093E7002093BE
:100F5000E600009791F51092E80008955DDF882380
:100F600019F0813021F402C069DF01C075DF5BDF59
:100F7000882319F0813021F402C07BDF01C087DFB4
:100F80008091ED009091EE00009731F001979093E1
:100F9000EE008093ED00089587DF1092EC00109230
:100FA000EB001092EA001092E90084E690E0909342
:100FB000EE008093ED001092EF000895CF93C1E012
:100FC000C093EF001092F0001092EC001092EB0032
:100FD0001092EA001092E90084E690E09093EE000F
:100FE0008093ED0089E797E061D084B3817E84BB74
:100FF00085B3817E85BBC093E8008CE291E090933D
:10100000E7008093E600CF910895E2EFF0E0CF0192
:10101000429611921192E817F907D9F71092F10050
:101020008BE085BD83E783BD89B7806889BF08955C
:101030001F920F920FB60F9211240F931F932F93AD
:101040003F934F935F936F937F938F939F93AF9350
:10105000BF93CF93EF93FF938091F100882391F09A
:10106000C0E002EF10E0EC2FF0E0EE0FFF1FE00F0A
:10107000F11F0190F081E02D0995CF5F8091F10083
:10108000C81788F3FF91EF91CF91BF91AF919F91D6
:101090008F917F916F915F914F913F912F911F9110
:1010A0000F910F900FBE0F901F9018952091F10097
:1010B0002A3058F4E22FF0E0EE0FFF1FEE50FF4F02
:1010C000918380832F5F2093F10008958091060122
:1010D00090910701009719F4109208010895019763
:1010E0009093070180930601089591B3906691BB98
:1010F00080FF08C0969A80910C01806480930C0157
:10110000959A0895969880910C018F7B80930C019D
:101110009598089581E00BDA882349F481E090E006
:10112000909311018093100180E001DA08951092EC
:10113000110110921001089582E0F9D9882349F431
:1011400082E090E0909311018093100180E0EFD94C
:1011500008951092110110921001089580E0E7D9CE
:1011600010921101109210010895CF934FDEC82FF5
:10117000843011F0882309F4F1DF80919E00909172
:101180009F008130910519F4C13009F4E7DF8091A7
:101190009E0090919F008230910519F4C23009F4AD
:1011A000DDDF8091100190911101009761F0209195
:1011B0009E0030919F002115310529F4B8D9109275
:1011C000110110921001CF910895AC014F5F5F4F54
:1011D0001416150654F0089500000197E9F72F5FE3
:1011E0003F4F241735072CF0089520E030E064EFDE
:1011F00071E0CB01F1CFAC014F5F5F4F14161506C4
:1012000054F0089500000197E9F72F5F3F4F24172E
:1012100035071CF0089520E030E08DE290E0F2CF39
:101220009C012F5F3F4F1216130654F480E090E0AC
:101230000000000000000000019682179307C4F32D
:10124000089510920701109206011092080186E697
:1012500098E02CDF0895F89481B5886181BD8DE018
:1012600081BDA895109211011092100110920C01ED
:10127000CCDEE7DFFCD6A2DE02D969DD81B3806671
:1012800081BB789480E053D910920D0181E0809366
:101290000B0180930A01809309018093740080E21E
:1012A00091EAA7E0B0E0A8950197A109B109D9F7A3
:1012B000A89585EB98E0FADEA895FECF21E0209373
:1012C000080190930701809306018091080188230B
:1012D00029F0A895809108018823D9F7089597FBF4
:1012E000092E07260AD077FD04D00CD006D00020A6
:1012F0001AF4709561957F4F0895F6F79095819552
:101300009F4F0895AA1BBB1B51E107C0AA1FBB1F1B
:10131000A617B70710F0A61BB70B881F991F5A9581
:10132000A9F780959095BC01CD010895F894FFCF61
:02133000630058
:00000001FF
